{
  "contractName": "EventEmitter",
  "abi": [
    {
      "constant": false,
      "inputs": [
        {
          "name": "_message",
          "type": "bytes32"
        }
      ],
      "name": "emitEvent",
      "outputs": [],
      "payable": false,
      "stateMutability": "nonpayable",
      "type": "function"
    },
    {
      "anonymous": false,
      "inputs": [
        {
          "indexed": true,
          "name": "message",
          "type": "bytes32"
        }
      ],
      "name": "LogEvent",
      "type": "event"
    }
  ],
  "bytecode": "0x60606040523415600e57600080fd5b60c88061001c6000396000f300606060405260043610603f576000357c0100000000000000000000000000000000000000000000000000000000900463ffffffff168063642b2737146044575b600080fd5b3415604e57600080fd5b60666004808035600019169060200190919050506068565b005b80600019167fd226ed2bc8a4081ee6d62540525cd9a44aa022eca68e344a7f7b924a75faeed560405160405180910390a2505600a165627a7a72305820a26b991c78a05163c62b8bb82af5d23596a90e8120c0b92e4e05575e2ce3f08b0029",
  "source": "pragma solidity ^0.4.18;\n\ncontract EventEmitter {\n\n    event LogEvent(bytes32 indexed message);\n\n    function emitEvent(bytes32 _message) public {\n        LogEvent(_message);\n    }\n\n}\n\n",
  "sourcePath": "/home/adam/Code/events/contracts/EventEmitter.sol",
  "compiler": {
    "name": "solc",
    "version": "0.4.18+commit.9cf6e910.Emscripten.clang"
  },
  "schemaVersion": "1.0.1",
  "updatedAt": "2018-01-11T20:28:25.461Z"
}